:100000000C9487000C94A6000C94A6000C94A600F7
:100010000C94A6000C94B4040C94A6000C94A600B6
:100020000C94A6000C94A6000C94A6000C94A600B8
:100030000C94A6000C94A6000C94F6030C941C02DD
:100040000C94A6000C94A6000C94A6000C94A60098
:100050000C94A6000C94A6000C94A6000C94A60088
:100060000C94A6000C94A6000C9493010C94A6008A
:100070000C94A6000C94A6000C94A6000C94A60068
:100080000C94A6000C94A6000C94A6000C94A60058
:100090000C94A6000C94A6000C94A6000C94A60048
:1000A0000C94A6000C94A6000C94A6000C94A60038
:1000B0000C94A6000C94A6000C94A6000C94A60028
:1000C0000C94A6000C94A6000C94A6000C94A60018
:1000D0000C94A6000C94A6000C945B050C94A6004E
:1000E0000C94A6000C94A6000C94A6000C94A600F8
:1000F00005A84CCDB2D44EB93836A9020C50B991EE
:100100008688083CA6AAAA2ABE000000803F1124C7
:100110001FBECFEFCDBFDFE7DEBF10E4A0E0B0E44D
:10012000ECE0F1E100E00BBF02C007900D92A230BD
:10013000B107D9F720E4A2E0B0E401C01D92AA3CC7
:10014000B207E1F70E94A8000C9484080C94000008
:10015000CF93DF93CDB7DEB764E288E690E00E94EC
:100160007E080E94EC040E9482040E94BA020E944F
:100170000A050E94550180E09BE020E03BE0F90188
:1001800020812160FC01208380E19BE020E13BE0B5
:10019000F90120812160FC01208385E00E94D200CA
:1001A0007894FFCFCF93DF931F92CDB7DEB78983CB
:1001B00080E694E024E0FC01218B80E694E024E0DA
:1001C000FC01238B80E694E024E0FC01248B80E694
:1001D00094E024E0FC01278B80E894E024E0FC011B
:1001E000218B80E894E024E0FC01238B80E097E001
:1001F00027E1FC01228380E097E025E0FC01208BD1
:1002000080E097E024E2FC01238B80E097E0FC0192
:10021000128A80E097E02FE7FC01248B80E097E0D2
:1002200025E0FC01208F80E097E022E1FC01238F94
:1002300080E097E02981222F30E0220F331F2295A2
:100240003295307F3227207F32272161FC01228FB7
:1002500080E097E02FE7FC01248F80E097E025E025
:10026000FC0120A380E097E024E2FC0123A380E0CE
:1002700097E0FC0112A280E097E02FE7FC0124A3A5
:1002800080E097E021E0FC012083000080E097E01F
:10029000FC018189882F90E081709927892BB1F723
:1002A00000000F90DF91CF910895CF93DF93CDB7EA
:1002B000DEB780E694E020E634E0F9012289FC0113
:1002C000228B80E096E023E0FC01228380EB90E02B
:1002D00020EB30E0F90120812560FC01208380E0E3
:1002E00096E021E2FC01208380E096E026E0FC011C
:1002F000208780E096E025E0FC01218780E096E001
:100300002AE0FC01258380E096E021E0FC012487BF
:1003100080E096E022E0FC0121830E9404020000BC
:10032000DF91CF9108951F920F9200903F000F929E
:10033000112400903B000F922F933F934F935F93B4
:100340006F937F938F939F93AF93BF93EF93FF939D
:10035000CF93DF9300D0CDB7DEB781E08093C2406A
:1003600080E096E0FC018089918996958795969525
:1003700087959F7089839A8389819A818115984096
:1003800078F080E096E0FC018089918996958795C8
:1003900096958795906F8093BF409093C04006C01C
:1003A00089819A818093BF409093C0400E943F050D
:1003B00080E096E021E0FC01258700000F900F907F
:1003C000DF91CF91FF91EF91BF91AF919F918F916D
:1003D0007F916F915F914F913F912F910F9000927C
:1003E0003B000F9000923F000F901F901895CF9305
:1003F000DF93CDB7DEB780E096E021E0FC012287F5
:100400000000DF91CF910895CF93DF93CDB7DEB792
:1004100080E19BE020E335E7FC012487358780E11C
:100420009BE0FC01108280E19BE021E0FC01258340
:100430000000DF91CF9108951F920F9200903F002E
:100440000F92112400903B000F922F933F934F93F4
:100450005F936F937F938F939F93AF93BF93EF932C
:10046000FF93CF93DF93CDB7DEB78091C24088234F
:1004700011F40E94F70180E19BE02FEFFC0126833D
:100480000000DF91CF91FF91EF91BF91AF919F91CC
:100490008F917F916F915F914F913F912F910F902D
:1004A00000923B000F9000923F000F901F90189514
:1004B000CF93DF9300D0CDB7DEB719821A824EC03A
:1004C00089819A81CC01A0E0B0E0BC01CD010E94FD
:1004D000BB06DC01CB012BED3FE049EC50E4BC0155
:1004E000CD010E947207DC01CB0120E030E048EB37
:1004F00052E4BC01CD010E941A06DC01CB01BC0113
:10050000CD010E94DF07DC01CB0120E030E044E4B4
:1005100052E4BC01CD010E947207DC01CB0120E056
:1005200030E04EE454E4BC01CD010E94A905DC0199
:10053000CB01BC01CD010E948C06DC01CB019C01EA
:1005400089819A81880F991F8C5F9F4BFC012083C2
:10055000318389819A81019689839A8389819A81DD
:100560008C35910508F4ACCF00000F900F90DF910F
:10057000CF910895CF93DF93CDB7DEB7A097CDBFCE
:10058000DEBF0E94580280E694E024E0FC01268B46
:1005900080EB90E020EB30E0F90122812160FC014A
:1005A000228380EB90E020EB30E0F901228120688B
:1005B000FC01228380E090E0A8ECB1E489839A8377
:1005C000AB83BC8320E030E040E051E469817A8174
:1005D0008B819C810E947207DC01CB018D839E83FD
:1005E000AF83B88720E030E040EC50E469817A8145
:1005F0008B819C810E947207DC01CB0189879A87DD
:10060000AB87BC8720E030E040E85FE36D817E810E
:100610008F8198850E94150688231CF481E08D87C0
:10062000B2C020E03FEF4FE757E469857A858B85BC
:100630009C850E946D0718160CF07BC020E030E00E
:100640004AE754E469817A818B819C810E941A0671
:10065000DC01CB018E879F87A88BB98B20E030E827
:100660004BEB55E46E857F85888999890E947207D6
:10067000DC01CB018A8B9B8BAC8BBD8B20E030E007
:1006800040E85FE36A897B898C899D890E94150611
:1006900088232CF481E090E08E8B9F8B3FC020E07C
:1006A0003FEF4FE757E46A897B898C899D890E94D7
:1006B0006D0718164CF520E030E040E251E46E85FD
:1006C0007F85888999890E947207DC01CB01BC0172
:1006D000CD010E948C06DC01CB018E8B9F8B0FC05D
:1006E00088E592E0888F998F888D998D0197F1F731
:1006F000888F998F8E899F8901978E8B9F8B8E898A
:100700009F89892B69F73FC06A897B898C899D897C
:100710000E948C06DC01CB018E8B9F8B8E899F897A
:100720008A8F9B8F8A8D9B8D0197F1F78A8F9B8F84
:100730002AC020E030E04FE753E46D817E818F8155
:1007400098850E946D071816ACF469857A858B85AB
:100750009C850E948C06DC01CB018C8F9D8F8C8D3B
:100760009D8D8E8F9F8F8E8D9F8D0197F1F78E8F30
:100770009F8F0FC06D817E818F8198850E948C062E
:10078000DC01CB018D878D8588A388A18A95F1F73F
:1007900088A380EA96E020E03EECFC0122833383CC
:1007A00080EA96E021E4FC0120830E94DE03000041
:1007B000A096CDBFDEBFDF91CF910895CF93DF9399
:1007C000CDB7DEB780E09BE022EC38E2FC01248765
:1007D000358780E09BE0FC01108280E09BE021E017
:1007E000FC0125830000DF91CF9108951F920F92A5
:1007F00000903F000F92112400903B000F922F9326
:100800003F934F935F936F937F938F939F93AF9398
:10081000BF93EF93FF93CF93DF93CDB7DEB7809174
:10082000024090910340880F991F8C5F9F4BFC0101
:100830008081918128E333E0A901481B590BCA014B
:10084000880F991F8093BD409093BE4080EA96E048
:100850002091024030910340220F331F2C5F3F4B09
:10086000F90120813181002436952795079436952A
:1008700027950794322F202DFC012283338380910A
:100880000240909103400196809302409093034070
:100890004091024050910340CA01969587959695E4
:1008A00087959C01A3E4B6E10E946F089695879511
:1008B0006CE5689F9001699F300D1124CA01821B6D
:1008C000930B809302409093034080E09BE02FEFD6
:1008D000FC0126830000DF91CF91FF91EF91BF9142
:1008E000AF919F918F917F916F915F914F913F91C8
:1008F0002F910F9000923B000F9000923F000F90BD
:100900001F901895CF93DF93CDB7DEB7000080E43A
:1009100091E0FC0181818823D1F780E491E02FEF01
:1009200031E0FC012287338780E491E0FC011782EB
:1009300080E491E029EAFC01208380E491E021E059
:10094000FC01238380E491E022E0FC01238380E426
:1009500091E020E431E0F90122812160FC01228351
:100960000000DF91CF9108951F920F9200903F00F9
:100970000F92112400903B000F922F933F934F93BF
:100980005F936F937F938F939F93AF93BF93EF93F7
:10099000FF93CF93DF93CDB7DEB780E491E021E002
:1009A000FC0123830E94FD040000DF91CF91FF91A1
:1009B000EF91BF91AF919F918F917F916F915F91D7
:1009C0004F913F912F910F9000923B000F9000921A
:1009D0003F000F901F901895CF93DF93CDB7DEB7F0
:1009E00080EA94E020EA34E0F90120812062FC01F1
:1009F00020830000DF91CF910895CF93DF93CDB78F
:100A0000DEB780EA94E020E2FC0127830000DF915A
:100A1000CF910895CF93DF93CDB7DEB784E090E018
:100A200024E030E0F90120812D7FFC01208384E067
:100A300090E024E030E0F90120812160FC01208376
:100A400080E698E021E433E0FC012087318780E6EE
:100A500098E023E0FC01278380E698E020E638E078
:100A6000F9012681206CFC01268385E58093BC403A
:100A70008AEA8093C1400000DF91CF910895CF931F
:100A8000DF93CDB7DEB787E0ECEBF0E4A3ECB0E4A6
:100A900001900D928A95E1F780E698E020E2FC0152
:100AA000258380E698E02091BC40FC012283000071
:100AB000DF91CF9108951F920F9200903F000F9207
:100AC000112400903B000F922F933F938F939F939D
:100AD000EF93FF93CF93DF93CDB7DEB78091C24002
:100AE000882321F180910040863090F480E698E0E0
:100AF00020910040222F30E02D533F4BF9012081FF
:100B0000FC012283809100408F5F809300400EC0E3
:100B100081E0809300401092C24080E698E020E699
:100B200038E0F90125812F7DFC0125830000DF914C
:100B3000CF91FF91EF919F918F913F912F910F90C6
:100B400000923B000F9000923F000F901F9018956D
:100B50005058BB27AA270E94C0050C9433070E9457
:100B6000250738F00E942C0720F039F49F3F19F434
:100B700026F40C9422070EF4E095E7FB0C941C0776
:100B8000E92F0E94440758F3BA17620773078407D6
:100B9000950720F079F4A6F50C9466070EF4E0951D
:100BA0000B2EBA2FA02D0B01B90190010C01CA0127
:100BB000A0011124FF27591B99F0593F50F4503ED2
:100BC00068F11A16F040A22F232F342F4427585FC4
:100BD000F3CF469537952795A795F0405395C9F7DC
:100BE0007EF41F16BA0B620B730B840BBAF0915094
:100BF000A1F0FF0FBB1F661F771F881FC2F70EC033
:100C0000BA0F621F731F841F48F487957795679505
:100C1000B795F7959E3F08F0B0CF9395880F08F0F1
:100C20009927EE0F9795879508950E94F80608F486
:100C300081E008950E942E060C9433070E942C0731
:100C400058F00E94250740F029F45F3F29F00C94EA
:100C50001C0751110C9467070C9422070E9444074B
:100C600068F39923B1F3552391F3951B550BBB27DB
:100C7000AA2762177307840738F09F5F5F4F220F20
:100C8000331F441FAA1FA9F335D00E2E3AF0E0E817
:100C900032D091505040E695001CCAF72BD0FE2F61
:100CA00029D0660F771F881FBB1F261737074807F5
:100CB000AB07B0E809F0BB0B802DBF01FF279358AD
:100CC0005F4F3AF09E3F510578F00C941C070C944E
:100CD00067075F3FE4F3983ED4F386957795679571
:100CE000B795F7959F5FC9F7880F911D96958795E2
:100CF00097F90895E1E0660F771F881FBB1F621701
:100D000073078407BA0720F0621B730B840BBA0BBE
:100D1000EE1F88F7E09508950E944C0788F09F57D2
:100D200098F0B92F9927B751B0F0E1F0660F771F0F
:100D3000881F991F1AF0BA95C9F714C0B13091F005
:100D40000E946607B1E008950C946607672F782F1C
:100D50008827B85F39F0B93FCCF3869577956795CA
:100D6000B395D9F73EF490958095709561957F4F36
:100D70008F4F9F4F0895E89409C097FB3EF49095DC
:100D80008095709561957F4F8F4F9F4F9923A9F064
:100D9000F92F96E9BB279395F695879577956795F3
:100DA000B795F111F8CFFAF4BB0F11F460FF1BC037
:100DB0006F5F7F4F8F4F9F4F16C0882311F096E9CA
:100DC00011C0772321F09EE8872F762F05C0662378
:100DD00071F096E8862F70E060E02AF09A95660F31
:100DE000771F881FDAF7880F9695879597F90895EA
:100DF000990F0008550FAA0BE0E8FEEF161617062C
:100E0000E807F907C0F012161306E407F50798F093
:100E1000621B730B840B950B39F40A2661F0232BAC
:100E2000242B252B21F408950A2609F4A140A69528
:100E30008FEF811D811D089597F99F6780E870E00D
:100E400060E008959FEF80EC089500240A94161640
:100E5000170618060906089500240A9412161306A8
:100E6000140605060895092E0394000C11F4882336
:100E700052F0BB0F40F4BF2B11F460FF04C06F5F52
:100E80007F4F8F4F9F4F089557FD9058440F551F28
:100E900059F05F3F71F04795880F97FB991F61F0FC
:100EA0009F3F79F087950895121613061406551F73
:100EB000F2CF4695F1DF08C0161617061806991FDF
:100EC000F1CF86957105610508940895E894BB27D4
:100ED00066277727CB0197F908950E94F80608F452
:100EE0008FEF08950E9485070C9433070E94250711
:100EF00038F00E942C0720F0952311F00C941C0769
:100F00000C94220711240C9467070E94440770F385
:100F1000959FC1F3950F50E0551F629FF001729F9E
:100F2000BB27F00DB11D639FAA27F00DB11DAA1FAD
:100F3000649F6627B00DA11D661F829F2227B00DFA
:100F4000A11D621F739FB00DA11D621F839FA00D85
:100F5000611D221F749F3327A00D611D231F849FD5
:100F6000600D211D822F762F6A2F11249F5750402C
:100F70009AF0F1F088234AF0EE0FFF1FBB1F661FA7
:100F8000771F881F91505040A9F79E3F510580F070
:100F90000C941C070C9467075F3FE4F3983ED4F36E
:100FA000869577956795B795F795E7959F5FC1F714
:100FB000FE2B880F911D9695879597F908959F931D
:100FC0000E94E9070F9007FCEE5F0C9412080C9446
:100FD00022070E944C07D8F3E894E0E0BB279F5714
:100FE000F0F02AED3FE049EC06C0EE0FBB0F661FA4
:100FF000771F881F28F0B23A62077307840728F02A
:10100000B25A620B730B840BE3959A9572F7803892
:1010100030F49A95BB0F661F771F881FD2F7904850
:101020000C942808EF93E0FF07C0A2EA2AED3FE006
:1010300049EC5FEB0E94C0050E9433070F900394B8
:1010400001FC9058E0EFF0E00C9434089F3F31F041
:10105000915020F4879577956795B795880F911DE6
:101060009695879597F908959F938F937F936F93A4
:10107000FF93EF939B01AC010E947207EF91FF91E8
:101080000E9448082F913F914F915F910C947207F5
:10109000DF93CF931F930F93FF92EF92DF927B0129
:1010A0008C01689406C0DA2EEF010E948507FE01CC
:1010B000E894A5912591359145915591A6F3EF01BD
:1010C0000E94C005FE019701A801DA9469F7DF903C
:1010D000EF90FF900F911F91CF91DF910895A29F04
:1010E000B001B39FC001A39F700D811D1124911DFC
:1010F000B29F700D811D1124911D0895DC0128ED12
:0C110000209334006C930895F894FFCF06
:02110C000100E0
:00000001FF
